{
  "_format": "hh-sol-artifact-1",
  "contractName": "Marketplace",
  "sourceName": "contracts/Marketplace.sol",
  "abi": [
    {
      "inputs": [
        {
          "internalType": "address",
          "name": "_nftContract",
          "type": "address"
        }
      ],
      "stateMutability": "nonpayable",
      "type": "constructor"
    },
    {
      "inputs": [
        {
          "internalType": "address",
          "name": "owner",
          "type": "address"
        }
      ],
      "name": "OwnableInvalidOwner",
      "type": "error"
    },
    {
      "inputs": [
        {
          "internalType": "address",
          "name": "account",
          "type": "address"
        }
      ],
      "name": "OwnableUnauthorizedAccount",
      "type": "error"
    },
    {
      "anonymous": false,
      "inputs": [
        {
          "indexed": true,
          "internalType": "address",
          "name": "buyer",
          "type": "address"
        },
        {
          "indexed": true,
          "internalType": "uint256",
          "name": "tokenId",
          "type": "uint256"
        },
        {
          "indexed": false,
          "internalType": "uint256",
          "name": "price",
          "type": "uint256"
        }
      ],
      "name": "NFTSold",
      "type": "event"
    },
    {
      "anonymous": false,
      "inputs": [
        {
          "indexed": true,
          "internalType": "address",
          "name": "previousOwner",
          "type": "address"
        },
        {
          "indexed": true,
          "internalType": "address",
          "name": "newOwner",
          "type": "address"
        }
      ],
      "name": "OwnershipTransferred",
      "type": "event"
    },
    {
      "inputs": [
        {
          "internalType": "uint256",
          "name": "tokenId",
          "type": "uint256"
        }
      ],
      "name": "buyNFT",
      "outputs": [],
      "stateMutability": "payable",
      "type": "function"
    },
    {
      "inputs": [
        {
          "internalType": "uint256",
          "name": "tokenId",
          "type": "uint256"
        },
        {
          "internalType": "uint256",
          "name": "price",
          "type": "uint256"
        }
      ],
      "name": "listNFTForSale",
      "outputs": [],
      "stateMutability": "nonpayable",
      "type": "function"
    },
    {
      "inputs": [
        {
          "internalType": "address",
          "name": "to",
          "type": "address"
        },
        {
          "internalType": "uint256",
          "name": "tokenId",
          "type": "uint256"
        },
        {
          "internalType": "string",
          "name": "tokenURI",
          "type": "string"
        }
      ],
      "name": "mintNFT",
      "outputs": [],
      "stateMutability": "nonpayable",
      "type": "function"
    },
    {
      "inputs": [],
      "name": "owner",
      "outputs": [
        {
          "internalType": "address",
          "name": "",
          "type": "address"
        }
      ],
      "stateMutability": "view",
      "type": "function"
    },
    {
      "inputs": [],
      "name": "renounceOwnership",
      "outputs": [],
      "stateMutability": "nonpayable",
      "type": "function"
    },
    {
      "inputs": [
        {
          "internalType": "address",
          "name": "newOwner",
          "type": "address"
        }
      ],
      "name": "transferOwnership",
      "outputs": [],
      "stateMutability": "nonpayable",
      "type": "function"
    }
  ],
  "bytecode": "0x60806040523480156200001157600080fd5b506040516200107038038062001070833981810160405281019062000037919062000235565b33600073ffffffffffffffffffffffffffffffffffffffff168173ffffffffffffffffffffffffffffffffffffffff1603620000ad5760006040517f1e4fbdf7000000000000000000000000000000000000000000000000000000008152600401620000a4919062000278565b60405180910390fd5b620000be816200010760201b60201c565b5080600160006101000a81548173ffffffffffffffffffffffffffffffffffffffff021916908373ffffffffffffffffffffffffffffffffffffffff1602179055505062000295565b60008060009054906101000a900473ffffffffffffffffffffffffffffffffffffffff169050816000806101000a81548173ffffffffffffffffffffffffffffffffffffffff021916908373ffffffffffffffffffffffffffffffffffffffff1602179055508173ffffffffffffffffffffffffffffffffffffffff168173ffffffffffffffffffffffffffffffffffffffff167f8be0079c531659141344cd1fd0a4f28419497f9722a3daafe3b4186f6b6457e060405160405180910390a35050565b600080fd5b600073ffffffffffffffffffffffffffffffffffffffff82169050919050565b6000620001fd82620001d0565b9050919050565b6200020f81620001f0565b81146200021b57600080fd5b50565b6000815190506200022f8162000204565b92915050565b6000602082840312156200024e576200024d620001cb565b5b60006200025e848285016200021e565b91505092915050565b6200027281620001f0565b82525050565b60006020820190506200028f600083018462000267565b92915050565b610dcb80620002a56000396000f3fe6080604052600436106100555760003560e01c80631e5769121461005a57806351ed828814610083578063715018a61461009f5780638da5cb5b146100b6578063b2733b39146100e1578063f2fde38b1461010a575b600080fd5b34801561006657600080fd5b50610081600480360381019061007c9190610952565b610133565b005b61009d600480360381019061009891906109c1565b6101d1565b005b3480156100ab57600080fd5b506100b46103d2565b005b3480156100c257600080fd5b506100cb6103e6565b6040516100d891906109fd565b60405180910390f35b3480156100ed57600080fd5b5061010860048036038101906101039190610a18565b61040f565b005b34801561011657600080fd5b50610131600480360381019061012c9190610a58565b6104e6565b005b61013b61056c565b600160009054906101000a900473ffffffffffffffffffffffffffffffffffffffff1673ffffffffffffffffffffffffffffffffffffffff1663d3fc98648484846040518463ffffffff1660e01b815260040161019a93929190610b13565b600060405180830381600087803b1580156101b457600080fd5b505af11580156101c8573d6000803e3d6000fd5b50505050505050565b6000600260008381526020019081526020016000205411610227576040517f08c379a000000000000000000000000000000000000000000000000000000000815260040161021e90610b9d565b60405180910390fd5b600260008281526020019081526020016000205434101561027d576040517f08c379a000000000000000000000000000000000000000000000000000000000815260040161027490610c09565b60405180910390fd5b6000610288826105f3565b90506000339050600160009054906101000a900473ffffffffffffffffffffffffffffffffffffffff1673ffffffffffffffffffffffffffffffffffffffff166323b872dd8383866040518463ffffffff1660e01b81526004016102ee93929190610c29565b600060405180830381600087803b15801561030857600080fd5b505af115801561031c573d6000803e3d6000fd5b505050508173ffffffffffffffffffffffffffffffffffffffff166108fc349081150290604051600060405180830381858888f19350505050158015610366573d6000803e3d6000fd5b50828173ffffffffffffffffffffffffffffffffffffffff167f90c126d08c53e7f57ef4e11eb379ae5bc0e2489ee38eeb36ecfcaec81fe04021346040516103ae9190610c60565b60405180910390a36002600084815260200190815260200160002060009055505050565b6103da61056c565b6103e46000610698565b565b60008060009054906101000a900473ffffffffffffffffffffffffffffffffffffffff16905090565b813373ffffffffffffffffffffffffffffffffffffffff16610430826105f3565b73ffffffffffffffffffffffffffffffffffffffff1614610486576040517f08c379a000000000000000000000000000000000000000000000000000000000815260040161047d90610cc7565b60405180910390fd5b600082116104c9576040517f08c379a00000000000000000000000000000000000000000000000000000000081526004016104c090610d33565b60405180910390fd5b816002600085815260200190815260200160002081905550505050565b6104ee61056c565b600073ffffffffffffffffffffffffffffffffffffffff168173ffffffffffffffffffffffffffffffffffffffff16036105605760006040517f1e4fbdf700000000000000000000000000000000000000000000000000000000815260040161055791906109fd565b60405180910390fd5b61056981610698565b50565b61057461075c565b73ffffffffffffffffffffffffffffffffffffffff166105926103e6565b73ffffffffffffffffffffffffffffffffffffffff16146105f1576105b561075c565b6040517f118cdaa70000000000000000000000000000000000000000000000000000000081526004016105e891906109fd565b60405180910390fd5b565b6000600160009054906101000a900473ffffffffffffffffffffffffffffffffffffffff1673ffffffffffffffffffffffffffffffffffffffff16636352211e836040518263ffffffff1660e01b81526004016106509190610c60565b602060405180830381865afa15801561066d573d6000803e3d6000fd5b505050506040513d601f19601f820116820180604052508101906106919190610d68565b9050919050565b60008060009054906101000a900473ffffffffffffffffffffffffffffffffffffffff169050816000806101000a81548173ffffffffffffffffffffffffffffffffffffffff021916908373ffffffffffffffffffffffffffffffffffffffff1602179055508173ffffffffffffffffffffffffffffffffffffffff168173ffffffffffffffffffffffffffffffffffffffff167f8be0079c531659141344cd1fd0a4f28419497f9722a3daafe3b4186f6b6457e060405160405180910390a35050565b600033905090565b6000604051905090565b600080fd5b600080fd5b600073ffffffffffffffffffffffffffffffffffffffff82169050919050565b60006107a382610778565b9050919050565b6107b381610798565b81146107be57600080fd5b50565b6000813590506107d0816107aa565b92915050565b6000819050919050565b6107e9816107d6565b81146107f457600080fd5b50565b600081359050610806816107e0565b92915050565b600080fd5b600080fd5b6000601f19601f8301169050919050565b7f4e487b7100000000000000000000000000000000000000000000000000000000600052604160045260246000fd5b61085f82610816565b810181811067ffffffffffffffff8211171561087e5761087d610827565b5b80604052505050565b6000610891610764565b905061089d8282610856565b919050565b600067ffffffffffffffff8211156108bd576108bc610827565b5b6108c682610816565b9050602081019050919050565b82818337600083830152505050565b60006108f56108f0846108a2565b610887565b90508281526020810184848401111561091157610910610811565b5b61091c8482856108d3565b509392505050565b600082601f8301126109395761093861080c565b5b81356109498482602086016108e2565b91505092915050565b60008060006060848603121561096b5761096a61076e565b5b6000610979868287016107c1565b935050602061098a868287016107f7565b925050604084013567ffffffffffffffff8111156109ab576109aa610773565b5b6109b786828701610924565b9150509250925092565b6000602082840312156109d7576109d661076e565b5b60006109e5848285016107f7565b91505092915050565b6109f781610798565b82525050565b6000602082019050610a1260008301846109ee565b92915050565b60008060408385031215610a2f57610a2e61076e565b5b6000610a3d858286016107f7565b9250506020610a4e858286016107f7565b9150509250929050565b600060208284031215610a6e57610a6d61076e565b5b6000610a7c848285016107c1565b91505092915050565b610a8e816107d6565b82525050565b600081519050919050565b600082825260208201905092915050565b60005b83811015610ace578082015181840152602081019050610ab3565b60008484015250505050565b6000610ae582610a94565b610aef8185610a9f565b9350610aff818560208601610ab0565b610b0881610816565b840191505092915050565b6000606082019050610b2860008301866109ee565b610b356020830185610a85565b8181036040830152610b478184610ada565b9050949350505050565b7f4e4654206e6f74206c697374656420666f722073616c65000000000000000000600082015250565b6000610b87601783610a9f565b9150610b9282610b51565b602082019050919050565b60006020820190508181036000830152610bb681610b7a565b9050919050565b7f496e73756666696369656e742066756e64730000000000000000000000000000600082015250565b6000610bf3601283610a9f565b9150610bfe82610bbd565b602082019050919050565b60006020820190508181036000830152610c2281610be6565b9050919050565b6000606082019050610c3e60008301866109ee565b610c4b60208301856109ee565b610c586040830184610a85565b949350505050565b6000602082019050610c756000830184610a85565b92915050565b7f596f7520646f6e2774206f776e2074686973204e465400000000000000000000600082015250565b6000610cb1601683610a9f565b9150610cbc82610c7b565b602082019050919050565b60006020820190508181036000830152610ce081610ca4565b9050919050565b7f5072696365206d7573742062652067726561746572207468616e207a65726f00600082015250565b6000610d1d601f83610a9f565b9150610d2882610ce7565b602082019050919050565b60006020820190508181036000830152610d4c81610d10565b9050919050565b600081519050610d62816107aa565b92915050565b600060208284031215610d7e57610d7d61076e565b5b6000610d8c84828501610d53565b9150509291505056fea26469706673582212206069f1389a4ff0d17b2ce4191f3a3c2bab650c590fc3f13a2e1bce09639211ed64736f6c63430008140033",
  "linkReferences": {},
  "deployedLinkReferences": {}
}